{
  "abi": [
    {
      "type": "constructor",
      "inputs": [
        {
          "name": "initialOwner",
          "type": "address",
          "internalType": "address"
        }
      ],
      "stateMutability": "nonpayable"
    },
    {
      "type": "function",
      "name": "ACTION_PAUSE_POSITIONS",
      "inputs": [],
      "outputs": [
        {
          "name": "",
          "type": "bytes32",
          "internalType": "bytes32"
        }
      ],
      "stateMutability": "view"
    },
    {
      "type": "function",
      "name": "ACTION_REDUCE_LEVERAGE",
      "inputs": [],
      "outputs": [
        {
          "name": "",
          "type": "bytes32",
          "internalType": "bytes32"
        }
      ],
      "stateMutability": "view"
    },
    {
      "type": "function",
      "name": "COOLDOWN_PERIOD",
      "inputs": [],
      "outputs": [
        {
          "name": "",
          "type": "uint256",
          "internalType": "uint256"
        }
      ],
      "stateMutability": "view"
    },
    {
      "type": "function",
      "name": "lastActionTimestamp",
      "inputs": [
        {
          "name": "",
          "type": "bytes32",
          "internalType": "bytes32"
        }
      ],
      "outputs": [
        {
          "name": "",
          "type": "uint256",
          "internalType": "uint256"
        }
      ],
      "stateMutability": "view"
    },
    {
      "type": "function",
      "name": "lastPriceSnapshot",
      "inputs": [
        {
          "name": "",
          "type": "address",
          "internalType": "address"
        }
      ],
      "outputs": [
        {
          "name": "price",
          "type": "uint256",
          "internalType": "uint256"
        },
        {
          "name": "timestamp",
          "type": "uint256",
          "internalType": "uint256"
        }
      ],
      "stateMutability": "view"
    },
    {
      "type": "function",
      "name": "owner",
      "inputs": [],
      "outputs": [
        {
          "name": "",
          "type": "address",
          "internalType": "address"
        }
      ],
      "stateMutability": "view"
    },
    {
      "type": "function",
      "name": "proposeAction",
      "inputs": [
        {
          "name": "actionType",
          "type": "bytes32",
          "internalType": "bytes32"
        },
        {
          "name": "actionData",
          "type": "bytes",
          "internalType": "bytes"
        }
      ],
      "outputs": [],
      "stateMutability": "nonpayable"
    },
    {
      "type": "function",
      "name": "protocol",
      "inputs": [],
      "outputs": [
        {
          "name": "",
          "type": "address",
          "internalType": "address"
        }
      ],
      "stateMutability": "view"
    },
    {
      "type": "function",
      "name": "renounceOwnership",
      "inputs": [],
      "outputs": [],
      "stateMutability": "nonpayable"
    },
    {
      "type": "function",
      "name": "sentinel",
      "inputs": [],
      "outputs": [
        {
          "name": "",
          "type": "address",
          "internalType": "address"
        }
      ],
      "stateMutability": "view"
    },
    {
      "type": "function",
      "name": "setProtocol",
      "inputs": [
        {
          "name": "_protocol",
          "type": "address",
          "internalType": "address"
        }
      ],
      "outputs": [],
      "stateMutability": "nonpayable"
    },
    {
      "type": "function",
      "name": "setSentinel",
      "inputs": [
        {
          "name": "_sentinel",
          "type": "address",
          "internalType": "address"
        }
      ],
      "outputs": [],
      "stateMutability": "nonpayable"
    },
    {
      "type": "function",
      "name": "transferOwnership",
      "inputs": [
        {
          "name": "newOwner",
          "type": "address",
          "internalType": "address"
        }
      ],
      "outputs": [],
      "stateMutability": "nonpayable"
    },
    {
      "type": "function",
      "name": "updatePriceSnapshot",
      "inputs": [
        {
          "name": "asset",
          "type": "address",
          "internalType": "address"
        },
        {
          "name": "price",
          "type": "uint256",
          "internalType": "uint256"
        }
      ],
      "outputs": [],
      "stateMutability": "nonpayable"
    },
    {
      "type": "event",
      "name": "ActionExecuted",
      "inputs": [
        {
          "name": "actionType",
          "type": "bytes32",
          "indexed": true,
          "internalType": "bytes32"
        },
        {
          "name": "actionData",
          "type": "bytes",
          "indexed": false,
          "internalType": "bytes"
        }
      ],
      "anonymous": false
    },
    {
      "type": "event",
      "name": "ActionProposed",
      "inputs": [
        {
          "name": "actionType",
          "type": "bytes32",
          "indexed": true,
          "internalType": "bytes32"
        },
        {
          "name": "proposer",
          "type": "address",
          "indexed": true,
          "internalType": "address"
        }
      ],
      "anonymous": false
    },
    {
      "type": "event",
      "name": "ActionRejected",
      "inputs": [
        {
          "name": "actionType",
          "type": "bytes32",
          "indexed": true,
          "internalType": "bytes32"
        },
        {
          "name": "reason",
          "type": "string",
          "indexed": false,
          "internalType": "string"
        }
      ],
      "anonymous": false
    },
    {
      "type": "event",
      "name": "OwnershipTransferred",
      "inputs": [
        {
          "name": "previousOwner",
          "type": "address",
          "indexed": true,
          "internalType": "address"
        },
        {
          "name": "newOwner",
          "type": "address",
          "indexed": true,
          "internalType": "address"
        }
      ],
      "anonymous": false
    },
    {
      "type": "event",
      "name": "ProtocolSet",
      "inputs": [
        {
          "name": "newProtocol",
          "type": "address",
          "indexed": true,
          "internalType": "address"
        }
      ],
      "anonymous": false
    },
    {
      "type": "event",
      "name": "SentinelSet",
      "inputs": [
        {
          "name": "newSentinel",
          "type": "address",
          "indexed": true,
          "internalType": "address"
        }
      ],
      "anonymous": false
    },
    {
      "type": "event",
      "name": "SnapshotUpdated",
      "inputs": [
        {
          "name": "asset",
          "type": "address",
          "indexed": true,
          "internalType": "address"
        },
        {
          "name": "price",
          "type": "uint256",
          "indexed": false,
          "internalType": "uint256"
        },
        {
          "name": "timestamp",
          "type": "uint256",
          "indexed": false,
          "internalType": "uint256"
        }
      ],
      "anonymous": false
    },
    {
      "type": "error",
      "name": "NotSentinel",
      "inputs": []
    },
    {
      "type": "error",
      "name": "OnCooldown",
      "inputs": []
    },
    {
      "type": "error",
      "name": "OwnableInvalidOwner",
      "inputs": [
        {
          "name": "owner",
          "type": "address",
          "internalType": "address"
        }
      ]
    },
    {
      "type": "error",
      "name": "OwnableUnauthorizedAccount",
      "inputs": [
        {
          "name": "account",
          "type": "address",
          "internalType": "address"
        }
      ]
    },
    {
      "type": "error",
      "name": "ThresholdNotMet",
      "inputs": []
    },
    {
      "type": "error",
      "name": "ZeroAddress",
      "inputs": []
    }
  ],
  "bytecode": {
    "object": "0x608060405234801561000f575f80fd5b50604051610e4b380380610e4b83398101604081905261002e916100bb565b806001600160a01b03811661005c57604051631e4fbdf760e01b81525f600482015260240160405180910390fd5b6100658161006c565b50506100e8565b5f80546001600160a01b038381166001600160a01b0319831681178455604051919092169283917f8be0079c531659141344cd1fd0a4f28419497f9722a3daafe3b4186f6b6457e09190a35050565b5f602082840312156100cb575f80fd5b81516001600160a01b03811681146100e1575f80fd5b9392505050565b610d56806100f55f395ff3fe608060405234801561000f575f80fd5b50600436106100e5575f3560e01c806385c6992111610088578063a387902f11610063578063a387902f146101f8578063d7cb22cf14610217578063f2fde38b1461023e578063f58c251c14610251575f80fd5b806385c69921146101aa5780638ce74426146101bd5780638da5cb5b146101e8575f80fd5b806319b69fa3116100c357806319b69fa3146101515780636b38d905146101645780636e99d52f14610199578063715018a6146101a2575f80fd5b806309dac061146100e95780630a9d793d146100fe578063182d7e2f14610111575b5f80fd5b6100fc6100f7366004610a18565b610264565b005b6100fc61010c366004610a18565b6102dc565b61013761011f366004610a18565b60046020525f90815260409020805460019091015482565b604080519283526020830191909152015b60405180910390f35b6100fc61015f366004610a3a565b610354565b61018b7f8e6c1f8d118e3b2b2134314d9109d09eac06816d1e60cdf6ff3ace2b9b35ce6a81565b604051908152602001610148565b61018b61070881565b6100fc61047b565b6100fc6101b8366004610aaf565b61048e565b6002546101d0906001600160a01b031681565b6040516001600160a01b039091168152602001610148565b5f546001600160a01b03166101d0565b61018b610206366004610ad9565b60036020525f908152604090205481565b61018b7fd490a29c3eef0ab146e48c53e346c3115536112e333fab711e86c347c4f5a43981565b6100fc61024c366004610a18565b61050c565b6001546101d0906001600160a01b031681565b61026c61054e565b6001600160a01b0381166102935760405163d92e233d60e01b815260040160405180910390fd5b600180546001600160a01b0319166001600160a01b0383169081179091556040517f7c96d1f57bb0bb7d52076cc073373170d851ff5ed37f1146f695ecf4b45e21cb905f90a250565b6102e461054e565b6001600160a01b03811661030b5760405163d92e233d60e01b815260040160405180910390fd5b600280546001600160a01b0319166001600160a01b0383169081179091556040517f9269d63ac6e0360a152db45a73e3e9e471a002419dff28abc7b58efaa211a2ba905f90a250565b61035c61057a565b610365836105a5565b1561038357604051632e84cb8f60e01b815260040160405180910390fd5b604051339084907fca607428404f98929ae60b3027a7fa393fb1f13d9a4189cde09b138ebbd9f5f6905f90a36103b8836105c8565b61042957827f4f04bc9690c759009a36b8279f46869e92155d7532fb99d46d16b347054fd46960405161041c906020808252601a908201527f5468726573686f6c64206e6f74206d6574206f6e2d636861696e000000000000604082015260600190565b60405180910390a2505050565b5f838152600360205260409020429055610444838383610634565b827f862964a3feb34eea8d023814586105e13e563ac772a70ae777241465f2b5a752838360405161041c929190610af0565b505050565b61048361054e565b61048c5f610756565b565b61049661057a565b6040805180820182528281524260208083018281526001600160a01b0387165f8181526004845286902094518555905160019094019390935583518581529081019190915290917f749a895977946fbb427a7c3da0a86bf47a5d5a6046dcea26f5e23321fdb244be910160405180910390a25050565b61051461054e565b6001600160a01b03811661054257604051631e4fbdf760e01b81525f60048201526024015b60405180910390fd5b61054b81610756565b50565b5f546001600160a01b0316331461048c5760405163118cdaa760e01b8152336004820152602401610539565b6001546001600160a01b0316331461048c576040516354a4cdb960e11b815260040160405180910390fd5b5f818152600360205260408120546105c09061070890610b32565b421092915050565b5f7fd490a29c3eef0ab146e48c53e346c3115536112e333fab711e86c347c4f5a43982036105fe576105f86107a5565b92915050565b7f8e6c1f8d118e3b2b2134314d9109d09eac06816d1e60cdf6ff3ace2b9b35ce6a820361062d576105f8610827565b505f919050565b7fd490a29c3eef0ab146e48c53e346c3115536112e333fab711e86c347c4f5a43983036106c8575f61066882840184610ad9565b600254604051634a943bb960e11b8152600481018390529192506001600160a01b0316906395287772906024015f604051808303815f87803b1580156106ac575f80fd5b505af11580156106be573d5f803e3d5ffd5b5050505050505050565b7f8e6c1f8d118e3b2b2134314d9109d09eac06816d1e60cdf6ff3ace2b9b35ce6a83036104765760025f9054906101000a90046001600160a01b03166001600160a01b0316636a62e3566040518163ffffffff1660e01b81526004015f604051808303815f87803b15801561073b575f80fd5b505af115801561074d573d5f803e3d5ffd5b50505050505050565b5f80546001600160a01b038381166001600160a01b0319831681178455604051919092169283917f8be0079c531659141344cd1fd0a4f28419497f9722a3daafe3b4186f6b6457e09190a35050565b5f8060025f9054906101000a90046001600160a01b03166001600160a01b031663bbb851886040518163ffffffff1660e01b8152600401606060405180830381865afa1580156107f7573d5f803e3d5ffd5b505050506040513d601f19601f8201168201806040525081019061081b9190610b45565b50506121341092915050565b5f8060025f9054906101000a90046001600160a01b03166001600160a01b031663bbb851886040518163ffffffff1660e01b8152600401606060405180830381865afa158015610879573d5f803e3d5ffd5b505050506040513d601f19601f8201168201806040525081019061089d9190610b45565b505090506123288111156108b357600191505090565b600254604051635c5a4c5160e11b81525f6004820181905260326024830152916001600160a01b03169063b8b498a2906044015f60405180830381865afa158015610900573d5f803e3d5ffd5b505050506040513d5f823e601f3d908101601f191682016040526109279190810190610bde565b5090505f5b81518110156109fb5760025482515f916001600160a01b0316906317845c699085908590811061095e5761095e610cdd565b60200260200101515f01516040518263ffffffff1660e01b815260040161098791815260200190565b602060405180830381865afa1580156109a2573d5f803e3d5ffd5b505050506040513d601f19601f820116820180604052508101906109c69190610cf1565b90505f811180156109d85750611f4081105b156109e857600194505050505090565b50806109f381610d08565b91505061092c565b505f9250505090565b6001600160a01b038116811461054b575f80fd5b5f60208284031215610a28575f80fd5b8135610a3381610a04565b9392505050565b5f805f60408486031215610a4c575f80fd5b83359250602084013567ffffffffffffffff80821115610a6a575f80fd5b818601915086601f830112610a7d575f80fd5b813581811115610a8b575f80fd5b876020828501011115610a9c575f80fd5b6020830194508093505050509250925092565b5f8060408385031215610ac0575f80fd5b8235610acb81610a04565b946020939093013593505050565b5f60208284031215610ae9575f80fd5b5035919050565b60208152816020820152818360408301375f818301604090810191909152601f909201601f19160101919050565b634e487b7160e01b5f52601160045260245ffd5b808201808211156105f8576105f8610b1e565b5f805f60608486031215610b57575f80fd5b8351925060208401519150604084015190509250925092565b634e487b7160e01b5f52604160045260245ffd5b60405160a0810167ffffffffffffffff81118282101715610ba757610ba7610b70565b60405290565b604051601f8201601f1916810167ffffffffffffffff81118282101715610bd657610bd6610b70565b604052919050565b5f806040808486031215610bf0575f80fd5b835167ffffffffffffffff80821115610c07575f80fd5b818601915086601f830112610c1a575f80fd5b8151602082821115610c2e57610c2e610b70565b610c3c818360051b01610bad565b828152818101935060a092830285018201928a841115610c5a575f80fd5b948201945b83861015610ccc5780868c031215610c76575f8081fd5b610c7e610b84565b8651815283870151610c8f81610a04565b818501528688015188820152606080880151908201526080808801518015158114610cb9575f8081fd5b9082015285529485019493820193610c5f565b509701519698969750505050505050565b634e487b7160e01b5f52603260045260245ffd5b5f60208284031215610d01575f80fd5b5051919050565b5f60018201610d1957610d19610b1e565b506001019056fea2646970667358221220e23236f652519171b92b764687e895a12c33dd62725e7a6d4deb586df1da6bcd64736f6c63430008140033",
    "linkReferences": {}
  },
  "methodIdentifiers": {
    "ACTION_PAUSE_POSITIONS()": "6b38d905",
    "ACTION_REDUCE_LEVERAGE()": "d7cb22cf",
    "COOLDOWN_PERIOD()": "6e99d52f",
    "lastActionTimestamp(bytes32)": "a387902f",
    "lastPriceSnapshot(address)": "182d7e2f",
    "owner()": "8da5cb5b",
    "proposeAction(bytes32,bytes)": "19b69fa3",
    "protocol()": "8ce74426",
    "renounceOwnership()": "715018a6",
    "sentinel()": "f58c251c",
    "setProtocol(address)": "0a9d793d",
    "setSentinel(address)": "09dac061",
    "transferOwnership(address)": "f2fde38b",
    "updatePriceSnapshot(address,uint256)": "85c69921"
  },
  "id": 23
}