{
  "abi": [
    {
      "type": "constructor",
      "inputs": [
        {
          "name": "initialOwner",
          "type": "address",
          "internalType": "address"
        }
      ],
      "stateMutability": "nonpayable"
    },
    {
      "type": "function",
      "name": "addPosition",
      "inputs": [
        {
          "name": "trader",
          "type": "address",
          "internalType": "address"
        },
        {
          "name": "collateral",
          "type": "uint256",
          "internalType": "uint256"
        },
        {
          "name": "prefunded",
          "type": "uint256",
          "internalType": "uint256"
        }
      ],
      "outputs": [],
      "stateMutability": "nonpayable"
    },
    {
      "type": "function",
      "name": "gateway",
      "inputs": [],
      "outputs": [
        {
          "name": "",
          "type": "address",
          "internalType": "address"
        }
      ],
      "stateMutability": "view"
    },
    {
      "type": "function",
      "name": "getActivePositions",
      "inputs": [
        {
          "name": "start",
          "type": "uint256",
          "internalType": "uint256"
        },
        {
          "name": "limit",
          "type": "uint256",
          "internalType": "uint256"
        }
      ],
      "outputs": [
        {
          "name": "batch",
          "type": "tuple[]",
          "internalType": "struct MockInvalendProtocol.Position[]",
          "components": [
            {
              "name": "id",
              "type": "uint256",
              "internalType": "uint256"
            },
            {
              "name": "trader",
              "type": "address",
              "internalType": "address"
            },
            {
              "name": "collateralAmount",
              "type": "uint256",
              "internalType": "uint256"
            },
            {
              "name": "prefundedAmount",
              "type": "uint256",
              "internalType": "uint256"
            },
            {
              "name": "isActive",
              "type": "bool",
              "internalType": "bool"
            }
          ]
        },
        {
          "name": "total",
          "type": "uint256",
          "internalType": "uint256"
        }
      ],
      "stateMutability": "view"
    },
    {
      "type": "function",
      "name": "getHealthFactor",
      "inputs": [
        {
          "name": "positionId",
          "type": "uint256",
          "internalType": "uint256"
        }
      ],
      "outputs": [
        {
          "name": "",
          "type": "uint256",
          "internalType": "uint256"
        }
      ],
      "stateMutability": "view"
    },
    {
      "type": "function",
      "name": "getPoolStats",
      "inputs": [],
      "outputs": [
        {
          "name": "utilization",
          "type": "uint256",
          "internalType": "uint256"
        },
        {
          "name": "liquidity",
          "type": "uint256",
          "internalType": "uint256"
        },
        {
          "name": "borrowed",
          "type": "uint256",
          "internalType": "uint256"
        }
      ],
      "stateMutability": "view"
    },
    {
      "type": "function",
      "name": "maxLeverageTier",
      "inputs": [],
      "outputs": [
        {
          "name": "",
          "type": "uint256",
          "internalType": "uint256"
        }
      ],
      "stateMutability": "view"
    },
    {
      "type": "function",
      "name": "newPositionsPaused",
      "inputs": [],
      "outputs": [
        {
          "name": "",
          "type": "bool",
          "internalType": "bool"
        }
      ],
      "stateMutability": "view"
    },
    {
      "type": "function",
      "name": "owner",
      "inputs": [],
      "outputs": [
        {
          "name": "",
          "type": "address",
          "internalType": "address"
        }
      ],
      "stateMutability": "view"
    },
    {
      "type": "function",
      "name": "pauseNewPositions",
      "inputs": [],
      "outputs": [],
      "stateMutability": "nonpayable"
    },
    {
      "type": "function",
      "name": "reduceMaxLeverage",
      "inputs": [
        {
          "name": "newTier",
          "type": "uint256",
          "internalType": "uint256"
        }
      ],
      "outputs": [],
      "stateMutability": "nonpayable"
    },
    {
      "type": "function",
      "name": "renounceOwnership",
      "inputs": [],
      "outputs": [],
      "stateMutability": "nonpayable"
    },
    {
      "type": "function",
      "name": "resumeNewPositions",
      "inputs": [],
      "outputs": [],
      "stateMutability": "nonpayable"
    },
    {
      "type": "function",
      "name": "setGateway",
      "inputs": [
        {
          "name": "_gateway",
          "type": "address",
          "internalType": "address"
        }
      ],
      "outputs": [],
      "stateMutability": "nonpayable"
    },
    {
      "type": "function",
      "name": "setPoolStats",
      "inputs": [
        {
          "name": "_totalLiquidity",
          "type": "uint256",
          "internalType": "uint256"
        },
        {
          "name": "_totalBorrowed",
          "type": "uint256",
          "internalType": "uint256"
        }
      ],
      "outputs": [],
      "stateMutability": "nonpayable"
    },
    {
      "type": "function",
      "name": "setPositionCollateral",
      "inputs": [
        {
          "name": "positionId",
          "type": "uint256",
          "internalType": "uint256"
        },
        {
          "name": "newCollateral",
          "type": "uint256",
          "internalType": "uint256"
        }
      ],
      "outputs": [],
      "stateMutability": "nonpayable"
    },
    {
      "type": "function",
      "name": "totalBorrowed",
      "inputs": [],
      "outputs": [
        {
          "name": "",
          "type": "uint256",
          "internalType": "uint256"
        }
      ],
      "stateMutability": "view"
    },
    {
      "type": "function",
      "name": "totalLiquidity",
      "inputs": [],
      "outputs": [
        {
          "name": "",
          "type": "uint256",
          "internalType": "uint256"
        }
      ],
      "stateMutability": "view"
    },
    {
      "type": "function",
      "name": "transferOwnership",
      "inputs": [
        {
          "name": "newOwner",
          "type": "address",
          "internalType": "address"
        }
      ],
      "outputs": [],
      "stateMutability": "nonpayable"
    },
    {
      "type": "event",
      "name": "GatewaySet",
      "inputs": [
        {
          "name": "gateway",
          "type": "address",
          "indexed": true,
          "internalType": "address"
        }
      ],
      "anonymous": false
    },
    {
      "type": "event",
      "name": "LeverageReduced",
      "inputs": [
        {
          "name": "previousTier",
          "type": "uint256",
          "indexed": false,
          "internalType": "uint256"
        },
        {
          "name": "newTier",
          "type": "uint256",
          "indexed": false,
          "internalType": "uint256"
        }
      ],
      "anonymous": false
    },
    {
      "type": "event",
      "name": "OwnershipTransferred",
      "inputs": [
        {
          "name": "previousOwner",
          "type": "address",
          "indexed": true,
          "internalType": "address"
        },
        {
          "name": "newOwner",
          "type": "address",
          "indexed": true,
          "internalType": "address"
        }
      ],
      "anonymous": false
    },
    {
      "type": "event",
      "name": "PositionAdded",
      "inputs": [
        {
          "name": "id",
          "type": "uint256",
          "indexed": true,
          "internalType": "uint256"
        },
        {
          "name": "trader",
          "type": "address",
          "indexed": true,
          "internalType": "address"
        },
        {
          "name": "collateral",
          "type": "uint256",
          "indexed": false,
          "internalType": "uint256"
        },
        {
          "name": "prefunded",
          "type": "uint256",
          "indexed": false,
          "internalType": "uint256"
        }
      ],
      "anonymous": false
    },
    {
      "type": "event",
      "name": "PositionsPaused",
      "inputs": [],
      "anonymous": false
    },
    {
      "type": "event",
      "name": "PositionsResumed",
      "inputs": [],
      "anonymous": false
    },
    {
      "type": "error",
      "name": "GatewayNotSet",
      "inputs": []
    },
    {
      "type": "error",
      "name": "InvalidLeverageTier",
      "inputs": []
    },
    {
      "type": "error",
      "name": "InvalidPositionId",
      "inputs": []
    },
    {
      "type": "error",
      "name": "NotGateway",
      "inputs": []
    },
    {
      "type": "error",
      "name": "OwnableInvalidOwner",
      "inputs": [
        {
          "name": "owner",
          "type": "address",
          "internalType": "address"
        }
      ]
    },
    {
      "type": "error",
      "name": "OwnableUnauthorizedAccount",
      "inputs": [
        {
          "name": "account",
          "type": "address",
          "internalType": "address"
        }
      ]
    }
  ],
  "bytecode": {
    "object": "0x608060405264e8d4a5100060025564975704e40060035560056004819055805460ff19169055348015610030575f80fd5b50604051610d1a380380610d1a83398101604081905261004f916100dc565b806001600160a01b03811661007d57604051631e4fbdf760e01b81525f600482015260240160405180910390fd5b6100868161008d565b5050610109565b5f80546001600160a01b038381166001600160a01b0319831681178455604051919092169283917f8be0079c531659141344cd1fd0a4f28419497f9722a3daafe3b4186f6b6457e09190a35050565b5f602082840312156100ec575f80fd5b81516001600160a01b0381168114610102575f80fd5b9392505050565b610c04806101165f395ff3fe608060405234801561000f575f80fd5b5060043610610111575f3560e01c80637390ba011161009e578063b8b498a21161006e578063b8b498a214610210578063bbb8518814610231578063cff07fd114610254578063f2fde38b14610267578063fa401ae81461027a575f80fd5b80637390ba01146101d25780638da5cb5b146101da57806390646b4a146101ea57806395287772146101fd575f80fd5b80631a72bfa5116100e45780631a72bfa5146101915780633fa017f3146101a65780634c19386c146101b95780636a62e356146101c2578063715018a6146101ca575f80fd5b80630127b5af14610115578063116191b61461013757806315770f921461016757806317845c691461017e575b5f80fd5b6005546101229060ff1681565b60405190151581526020015b60405180910390f35b60055461014f9061010090046001600160a01b031681565b6040516001600160a01b03909116815260200161012e565b61017060025481565b60405190815260200161012e565b61017061018c366004610a0a565b610283565b6101a461019f366004610a21565b610337565b005b6101a46101b4366004610a21565b61034a565b61017060035481565b6101a461039f565b6101a46103de565b6101a46103f1565b5f546001600160a01b031661014f565b6101a46101f8366004610a5c565b61042d565b6101a461020b366004610a0a565b610486565b61022361021e366004610a21565b610500565b60405161012e929190610a7c565b61023961070e565b6040805193845260208401929092529082015260600161012e565b6101a4610262366004610afb565b610747565b6101a4610275366004610a5c565b6108ba565b61017060045481565b6001545f9082106102a757604051637bb0b62160e01b815260040160405180910390fd5b5f600183815481106102bb576102bb610b2b565b5f9182526020909120600590910201600481015490915060ff1615806102e357506003810154155b156102f057505f92915050565b5f6127108260030154611f406103069190610b53565b6103109190610b70565b90508082600201546127106103259190610b53565b61032f9190610b70565b949350505050565b61033f6108fc565b600291909155600355565b6103526108fc565b600154821061037457604051637bb0b62160e01b815260040160405180910390fd5b806001838154811061038857610388610b2b565b905f5260205f209060050201600201819055505050565b6103a7610928565b6005805460ff191660011790556040517f10e90b0ff168166ccde1e22c05dbdfbc686c8ce2d488edc3cb8a34fc55b5f19d905f90a1565b6103e66108fc565b6103ef5f610986565b565b6103f9610928565b6005805460ff191690556040517f2434061b4e11174e7c27545336c173e5646d471ad070f7bb5538d8bf4138dced905f90a1565b6104356108fc565b60058054610100600160a81b0319166101006001600160a01b038416908102919091179091556040517f5317fa585931182194fed99f2ea5f2efd38af9cff9724273704c8501c521e34b905f90a250565b61048e610928565b80158061049d57506004548110155b156104bb5760405163059de65560e51b815260040160405180910390fd5b600480549082905560408051828152602081018490527fa2a5a449f450275179059f0518b0dd3f2b7238f01953eba032dbddfb54a5c839910160405180910390a15050565b6001546060908084101580610513575082155b1561055057604080515f8082526020820190925290610548565b6105356109d5565b81526020019060019003908161052d5790505b509150610707565b5f8161055c8587610ba3565b116105705761056b8486610ba3565b610572565b815b90505f855b828110156105cd576001818154811061059257610592610b2b565b5f91825260209091206004600590920201015460ff16156105bb57816105b781610bb6565b9250505b806105c581610bb6565b915050610577565b508067ffffffffffffffff8111156105e7576105e7610b8f565b60405190808252806020026020018201604052801561062057816020015b61060d6109d5565b8152602001906001900390816106055790505b5093505f865b83811015610702576001818154811061064157610641610b2b565b5f91825260209091206004600590920201015460ff16156106f0576001818154811061066f5761066f610b2b565b5f9182526020918290206040805160a08101825260059093029091018054835260018101546001600160a01b0316938301939093526002830154908201526003820154606082015260049091015460ff161515608082015286836106d281610bb6565b9450815181106106e4576106e4610b2b565b60200260200101819052505b806106fa81610bb6565b915050610626565b505050505b9250929050565b6002546003545f9190811561073e5760025460035461072f90612710610b53565b6107399190610b70565b610740565b5f5b9250909192565b61074f6108fc565b600180546040805160a0810182528281526001600160a01b0387811660208084018281528486018a8152606086018a8152608087018a8152898b018b555f9a909a5295517fb10e2d527612073b26eecdfd717e6a320cf44b4afac2b0732d9fcbe2b7fa0cf660058a029081019190915591517fb10e2d527612073b26eecdfd717e6a320cf44b4afac2b0732d9fcbe2b7fa0cf7830180546001600160a01b031916919096161790945592517fb10e2d527612073b26eecdfd717e6a320cf44b4afac2b0732d9fcbe2b7fa0cf884015592517fb10e2d527612073b26eecdfd717e6a320cf44b4afac2b0732d9fcbe2b7fa0cf983015594517fb10e2d527612073b26eecdfd717e6a320cf44b4afac2b0732d9fcbe2b7fa0cfa909101805460ff1916911515919091179055815186815290810185905291929183917fe09c1fea8318354f0053fdd68105c144cc6c6989d6518c5934868930d966ed20910160405180910390a350505050565b6108c26108fc565b6001600160a01b0381166108f057604051631e4fbdf760e01b81525f60048201526024015b60405180910390fd5b6108f981610986565b50565b5f546001600160a01b031633146103ef5760405163118cdaa760e01b81523360048201526024016108e7565b60055461010090046001600160a01b03166109565760405163802c185360e01b815260040160405180910390fd5b60055461010090046001600160a01b031633146103ef5760405163e7e601db60e01b815260040160405180910390fd5b5f80546001600160a01b038381166001600160a01b0319831681178455604051919092169283917f8be0079c531659141344cd1fd0a4f28419497f9722a3daafe3b4186f6b6457e09190a35050565b6040518060a001604052805f81526020015f6001600160a01b031681526020015f81526020015f81526020015f151581525090565b5f60208284031215610a1a575f80fd5b5035919050565b5f8060408385031215610a32575f80fd5b50508035926020909101359150565b80356001600160a01b0381168114610a57575f80fd5b919050565b5f60208284031215610a6c575f80fd5b610a7582610a41565b9392505050565b604080825283518282018190525f9190606090818501906020808901865b83811015610ae757815180518652838101516001600160a01b0316848701528781015188870152868101518787015260809081015115159086015260a09094019390820190600101610a9a565b505095909501959095525092949350505050565b5f805f60608486031215610b0d575f80fd5b610b1684610a41565b95602085013595506040909401359392505050565b634e487b7160e01b5f52603260045260245ffd5b634e487b7160e01b5f52601160045260245ffd5b8082028115828204841417610b6a57610b6a610b3f565b92915050565b5f82610b8a57634e487b7160e01b5f52601260045260245ffd5b500490565b634e487b7160e01b5f52604160045260245ffd5b80820180821115610b6a57610b6a610b3f565b5f60018201610bc757610bc7610b3f565b506001019056fea264697066735822122077203a07f2932136e1c1fda60c3bd5e11a64e987c12fa1d16ea16d72bd4222fa64736f6c63430008140033",
    "linkReferences": {}
  },
  "methodIdentifiers": {
    "addPosition(address,uint256,uint256)": "cff07fd1",
    "gateway()": "116191b6",
    "getActivePositions(uint256,uint256)": "b8b498a2",
    "getHealthFactor(uint256)": "17845c69",
    "getPoolStats()": "bbb85188",
    "maxLeverageTier()": "fa401ae8",
    "newPositionsPaused()": "0127b5af",
    "owner()": "8da5cb5b",
    "pauseNewPositions()": "6a62e356",
    "reduceMaxLeverage(uint256)": "95287772",
    "renounceOwnership()": "715018a6",
    "resumeNewPositions()": "7390ba01",
    "setGateway(address)": "90646b4a",
    "setPoolStats(uint256,uint256)": "1a72bfa5",
    "setPositionCollateral(uint256,uint256)": "3fa017f3",
    "totalBorrowed()": "4c19386c",
    "totalLiquidity()": "15770f92",
    "transferOwnership(address)": "f2fde38b"
  },
  "id": 19
}